{
  "_format": "hh-sol-artifact-1",
  "contractName": "MultiStaker",
  "sourceName": "contracts/MultiStaker.sol",
  "abi": [
    {
      "inputs": [],
      "name": "approveAllStakingMethodsWithMaxAmount",
      "outputs": [],
      "stateMutability": "nonpayable",
      "type": "function"
    },
    {
      "inputs": [],
      "name": "approveRequiredMethods",
      "outputs": [],
      "stateMutability": "nonpayable",
      "type": "function"
    },
    {
      "inputs": [
        {
          "internalType": "string[]",
          "name": "_methods",
          "type": "string[]"
        },
        {
          "internalType": "uint256",
          "name": "_amount",
          "type": "uint256"
        }
      ],
      "name": "approveStakingMethods",
      "outputs": [],
      "stateMutability": "nonpayable",
      "type": "function"
    },
    {
      "inputs": [
        {
          "internalType": "string[]",
          "name": "_validatorAddrs",
          "type": "string[]"
        },
        {
          "internalType": "uint256[]",
          "name": "_amounts",
          "type": "uint256[]"
        },
        {
          "internalType": "uint256[]",
          "name": "_creationHeights",
          "type": "uint256[]"
        }
      ],
      "name": "cancelUnbondingDelegation",
      "outputs": [
        {
          "internalType": "int64[]",
          "name": "completionTimes",
          "type": "int64[]"
        }
      ],
      "stateMutability": "nonpayable",
      "type": "function"
    },
    {
      "inputs": [],
      "name": "getAllowance",
      "outputs": [
        {
          "internalType": "uint256",
          "name": "remaining",
          "type": "uint256"
        }
      ],
      "stateMutability": "view",
      "type": "function"
    },
    {
      "inputs": [
        {
          "internalType": "string",
          "name": "_validatorAddr",
          "type": "string"
        }
      ],
      "name": "getDelegation",
      "outputs": [
        {
          "internalType": "uint256",
          "name": "shares",
          "type": "uint256"
        },
        {
          "components": [
            {
              "internalType": "string",
              "name": "denom",
              "type": "string"
            },
            {
              "internalType": "uint256",
              "name": "amount",
              "type": "uint256"
            }
          ],
          "internalType": "struct Coin",
          "name": "balance",
          "type": "tuple"
        }
      ],
      "stateMutability": "view",
      "type": "function"
    },
    {
      "inputs": [
        {
          "internalType": "string",
          "name": "_validatorAddr",
          "type": "string"
        }
      ],
      "name": "getDelegationRewards",
      "outputs": [
        {
          "components": [
            {
              "internalType": "string",
              "name": "denom",
              "type": "string"
            },
            {
              "internalType": "uint256",
              "name": "amount",
              "type": "uint256"
            },
            {
              "internalType": "uint8",
              "name": "precision",
              "type": "uint8"
            }
          ],
          "internalType": "struct DecCoin[]",
          "name": "rewards",
          "type": "tuple[]"
        }
      ],
      "stateMutability": "view",
      "type": "function"
    },
    {
      "inputs": [],
      "name": "getDelegationTotalRewards",
      "outputs": [
        {
          "components": [
            {
              "internalType": "string",
              "name": "validatorAddress",
              "type": "string"
            },
            {
              "components": [
                {
                  "internalType": "string",
                  "name": "denom",
                  "type": "string"
                },
                {
                  "internalType": "uint256",
                  "name": "amount",
                  "type": "uint256"
                },
                {
                  "internalType": "uint8",
                  "name": "precision",
                  "type": "uint8"
                }
              ],
              "internalType": "struct DecCoin[]",
              "name": "reward",
              "type": "tuple[]"
            }
          ],
          "internalType": "struct DelegationDelegatorReward[]",
          "name": "rewards",
          "type": "tuple[]"
        },
        {
          "components": [
            {
              "internalType": "string",
              "name": "denom",
              "type": "string"
            },
            {
              "internalType": "uint256",
              "name": "amount",
              "type": "uint256"
            },
            {
              "internalType": "uint8",
              "name": "precision",
              "type": "uint8"
            }
          ],
          "internalType": "struct DecCoin[]",
          "name": "total",
          "type": "tuple[]"
        }
      ],
      "stateMutability": "view",
      "type": "function"
    },
    {
      "inputs": [],
      "name": "getDelegatorValidators",
      "outputs": [
        {
          "internalType": "string[]",
          "name": "validators",
          "type": "string[]"
        }
      ],
      "stateMutability": "view",
      "type": "function"
    },
    {
      "inputs": [
        {
          "internalType": "string",
          "name": "_validatorAddr",
          "type": "string"
        }
      ],
      "name": "getUnbondingDelegation",
      "outputs": [
        {
          "components": [
            {
              "internalType": "int64",
              "name": "creationHeight",
              "type": "int64"
            },
            {
              "internalType": "int64",
              "name": "completionTime",
              "type": "int64"
            },
            {
              "internalType": "uint256",
              "name": "initialBalance",
              "type": "uint256"
            },
            {
              "internalType": "uint256",
              "name": "balance",
              "type": "uint256"
            }
          ],
          "internalType": "struct UnbondingDelegationEntry[]",
          "name": "entries",
          "type": "tuple[]"
        }
      ],
      "stateMutability": "view",
      "type": "function"
    },
    {
      "inputs": [
        {
          "internalType": "string[]",
          "name": "_validatorSrcAddrs",
          "type": "string[]"
        },
        {
          "internalType": "string[]",
          "name": "_validatorDstAddrs",
          "type": "string[]"
        },
        {
          "internalType": "uint256[]",
          "name": "_amounts",
          "type": "uint256[]"
        }
      ],
      "name": "redelegateTokens",
      "outputs": [
        {
          "internalType": "int64[]",
          "name": "completionTimes",
          "type": "int64[]"
        }
      ],
      "stateMutability": "nonpayable",
      "type": "function"
    },
    {
      "inputs": [
        {
          "internalType": "string[]",
          "name": "_validatorAddrs",
          "type": "string[]"
        },
        {
          "internalType": "uint256[]",
          "name": "_amounts",
          "type": "uint256[]"
        }
      ],
      "name": "safeStakeTokens",
      "outputs": [
        {
          "internalType": "int64[]",
          "name": "completionTimes",
          "type": "int64[]"
        }
      ],
      "stateMutability": "nonpayable",
      "type": "function"
    },
    {
      "inputs": [
        {
          "internalType": "string[]",
          "name": "_validatorAddrs",
          "type": "string[]"
        },
        {
          "internalType": "uint256[]",
          "name": "_amounts",
          "type": "uint256[]"
        }
      ],
      "name": "stakeTokens",
      "outputs": [
        {
          "internalType": "int64[]",
          "name": "completionTimes",
          "type": "int64[]"
        }
      ],
      "stateMutability": "nonpayable",
      "type": "function"
    },
    {
      "inputs": [
        {
          "internalType": "string[]",
          "name": "_validatorAddrs",
          "type": "string[]"
        },
        {
          "internalType": "uint256[]",
          "name": "_amounts",
          "type": "uint256[]"
        }
      ],
      "name": "unstakeTokens",
      "outputs": [
        {
          "internalType": "int64[]",
          "name": "completionTimes",
          "type": "int64[]"
        }
      ],
      "stateMutability": "nonpayable",
      "type": "function"
    },
    {
      "inputs": [
        {
          "internalType": "string[]",
          "name": "_validatorAddrs",
          "type": "string[]"
        }
      ],
      "name": "withdrawRewards",
      "outputs": [
        {
          "components": [
            {
              "internalType": "string",
              "name": "denom",
              "type": "string"
            },
            {
              "internalType": "uint256",
              "name": "amount",
              "type": "uint256"
            }
          ],
          "internalType": "struct Coin[][]",
          "name": "amounts",
          "type": "tuple[][]"
        }
      ],
      "stateMutability": "nonpayable",
      "type": "function"
    }
  ],
  "bytecode": "0x61016060405260236101008181526080918291906200275b610120398152602001604051806060016040528060258152602001620026ff6025913981526020016040518060600160405280602a8152602001620026d5602a913981526020016040518060600160405280603481526020016200277e6034913990526200008a906000906004620000d6565b50604051806020016040528060405180606001604052806037815260200162002724603791399052620000c1906001908162000133565b50348015620000cf57600080fd5b5062000369565b82805482825590600052602060002090810192821562000121579160200282015b828111156200012157825182906200011090826200029d565b5091602001919060010190620000f7565b506200012f9291506200017e565b5090565b82805482825590600052602060002090810192821562000121579160200282015b828111156200012157825182906200016d90826200029d565b509160200191906001019062000154565b808211156200012f5760006200019582826200019f565b506001016200017e565b508054620001ad906200020e565b6000825580601f10620001be575050565b601f016020900490600052602060002090810190620001de9190620001e1565b50565b5b808211156200012f5760008155600101620001e2565b634e487b7160e01b600052604160045260246000fd5b600181811c908216806200022357607f821691505b6020821081036200024457634e487b7160e01b600052602260045260246000fd5b50919050565b601f8211156200029857600081815260208120601f850160051c81016020861015620002735750805b601f850160051c820191505b8181101562000294578281556001016200027f565b5050505b505050565b81516001600160401b03811115620002b957620002b9620001f8565b620002d181620002ca84546200020e565b846200024a565b602080601f831160018114620003095760008415620002f05750858301515b600019600386901b1c1916600185901b17855562000294565b600085815260208120601f198616915b828110156200033a5788860151825594840194600190910190840162000319565b5085821015620003595787850151600019600388901b60f8161c191681555b5050505050600190811b01905550565b61235c80620003796000396000f3fe608060405234801561001057600080fd5b50600436106100f55760003560e01c80639af108fe11610097578063c6e79b9111610066578063c6e79b9114610215578063d9e644b01461021d578063f3507e9b14610230578063fb66bf981461024357600080fd5b80639af108fe146101d05780639d8242e0146101e3578063afb427e9146101f8578063c37ca80b1461020057600080fd5b80635e31c8bb116100d35780635e31c8bb1461016457806365abd5bf1461017a5780637c9a29cc1461019a578063973e9b8b146101ba57600080fd5b80631d813f47146100fa578063325cec7d1461012457806332cc380914610144575b600080fd5b61010d6101083660046112a9565b610256565b60405161011b92919061135e565b60405180910390f35b610137610132366004611424565b6102ea565b60405161011b9190611458565b6101576101523660046112a9565b61040d565b60405161011b9190611575565b61016c610482565b60405161011b92919061158f565b61018d6101883660046112a9565b6104f4565b60405161011b9190611628565b6101ad6101a83660046116e1565b610563565b60405161011b9190611744565b6101c26106c7565b60405190815260200161011b565b6101ad6101de3660046116e1565b610759565b6101f66101f136600461178b565b6109f5565b005b6101f6610a8b565b610208610b1e565b60405161011b9190611805565b6101f6610b86565b6101ad61022b366004611867565b610d26565b6101ad61023e3660046118ee565b610eaa565b6101ad6102513660046116e1565b611026565b6000610275604051806040016040528060608152602001600081525090565b60405163120bba7360e11b81526108009063241774e69061029c9033908790600401611948565b600060405180830381865afa1580156102b9573d6000803e3d6000fd5b505050506040513d6000823e601f3d908101601f191682016040526102e19190810190611a1f565b91509150915091565b606081516001600160401b038111156103055761030561117a565b60405190808252806020026020018201604052801561033857816020015b60608152602001906001900390816103235790505b50905060005b8251811015610407576108016001600160a01b031663b46a8d613385848151811061036b5761036b611a5b565b60200260200101516040518363ffffffff1660e01b8152600401610390929190611948565b6000604051808303816000875af11580156103af573d6000803e3d6000fd5b505050506040513d6000823e601f3d908101601f191682016040526103d79190810190611a71565b8282815181106103e9576103e9611a5b565b602002602001018190525080806103ff90611b37565b91505061033e565b50919050565b6040516326b558ed60e21b815260609061080190639ad563b4906104379033908690600401611948565b600060405180830381865afa158015610454573d6000803e3d6000fd5b505050506040513d6000823e601f3d908101601f1916820160405261047c9190810190611c31565b92915050565b604051630a97c34560e31b81523260048201526060908190610801906354be1a2890602401600060405180830381865afa1580156104c4573d6000803e3d6000fd5b505050506040513d6000823e601f3d908101601f191682016040526104ec9190810190611c65565b915091509091565b60405163a03ffee160e01b81526060906108009063a03ffee19061051e9033908690600401611948565b600060405180830381865afa15801561053b573d6000803e3d6000fd5b505050506040513d6000823e601f3d908101601f1916820160405261047c9190810190611da2565b6060815183511461058f5760405162461bcd60e51b815260040161058690611e79565b60405180910390fd5b82516001600160401b038111156105a8576105a861117a565b6040519080825280602002602001820160405280156105d1578160200160208202803683370190505b50905060005b83518110156106c0576108006001600160a01b0316633edab33c3386848151811061060457610604611a5b565b602002602001015186858151811061061e5761061e611a5b565b60200260200101516040518463ffffffff1660e01b815260040161064493929190611ecc565b6020604051808303816000875af1158015610663573d6000803e3d6000fd5b505050506040513d601f19601f820116820180604052508101906106879190611f00565b82828151811061069957610699611a5b565b602002602001019060070b908160070b8152505080806106b890611b37565b9150506105d7565b5092915050565b60006108006001600160a01b031663fc08930c3033604051806060016040528060238152602001612304602391396040518463ffffffff1660e01b815260040161071393929190611f1b565b602060405180830381865afa158015610730573d6000803e3d6000fd5b505050506040513d601f19601f820116820180604052508101906107549190611f50565b905090565b6060815183511461077c5760405162461bcd60e51b815260040161058690611e79565b6000805b83518110156107c25783818151811061079b5761079b611a5b565b6020026020010151826107ae9190611f69565b9150806107ba81611b37565b915050610780565b5060006108006001600160a01b031663fc08930c3033604051806060016040528060238152602001612304602391396040518463ffffffff1660e01b815260040161080f93929190611f1b565b602060405180830381865afa15801561082c573d6000803e3d6000fd5b505050506040513d601f19601f820116820180604052508101906108509190611f50565b9050808211156108bb5760405162461bcd60e51b815260206004820152603060248201527f546f74616c207374616b696e6720616d6f756e7420657863656564732072656d60448201526f61696e696e6720616c6c6f77616e636560801b6064820152608401610586565b84516001600160401b038111156108d4576108d461117a565b6040519080825280602002602001820160405280156108fd578160200160208202803683370190505b50925060005b85518110156109ec576108006001600160a01b03166353266bbb3388848151811061093057610930611a5b565b602002602001015188858151811061094a5761094a611a5b565b60200260200101516040518463ffffffff1660e01b815260040161097093929190611ecc565b6020604051808303816000875af115801561098f573d6000803e3d6000fd5b505050506040513d601f19601f820116820180604052508101906109b39190611f00565b8482815181106109c5576109c5611a5b565b602002602001019060070b908160070b8152505080806109e490611b37565b915050610903565b50505092915050565b60405163b603989560e01b81526000906108009063b603989590610a23903390869089908990600401611fa5565b6020604051808303816000875af1158015610a42573d6000803e3d6000fd5b505050506040513d601f19601f82011682018060405250810190610a66919061205a565b905080610a855760405162461bcd60e51b81526004016105869061207c565b50505050565b60405163b603989560e01b81526000906108009063b603989590610ab9903390600019908690600401612196565b6020604051808303816000875af1158015610ad8573d6000803e3d6000fd5b505050506040513d601f19601f82011682018060405250810190610afc919061205a565b905080610b1b5760405162461bcd60e51b81526004016105869061207c565b50565b60405163a66cb60560e01b81523360048201526060906108019063a66cb60590602401600060405180830381865afa158015610b5e573d6000803e3d6000fd5b505050506040513d6000823e601f3d908101601f1916820160405261075491908101906121bd565b60405163b603989560e01b81526000906108009063b603989590610bb4903390600019908690600401612196565b6020604051808303816000875af1158015610bd3573d6000803e3d6000fd5b505050506040513d601f19601f82011682018060405250810190610bf7919061205a565b905080610c505760405162461bcd60e51b815260206004820152602160248201527f4661696c656420746f20617070726f76652064656c6567617465206d6574686f6044820152601960fa1b6064820152608401610586565b604051637a9841ed60e01b815261080190637a9841ed90610c78903390600190600401612260565b6020604051808303816000875af1158015610c97573d6000803e3d6000fd5b505050506040513d601f19601f82011682018060405250810190610cbb919061205a565b905080610b1b5760405162461bcd60e51b815260206004820152603360248201527f4661696c656420746f20617070726f76652077697468647261772064656c6567604482015272185d1bdc881c995dd85c991cc81b595d1a1bd9606a1b6064820152608401610586565b606082518451148015610d3a575081518451145b610d565760405162461bcd60e51b815260040161058690611e79565b83516001600160401b03811115610d6f57610d6f61117a565b604051908082528060200260200182016040528015610d98578160200160208202803683370190505b50905060005b8451811015610ea2576108006001600160a01b03166312d58dfe33878481518110610dcb57610dcb611a5b565b6020026020010151878581518110610de557610de5611a5b565b6020026020010151878681518110610dff57610dff611a5b565b60200260200101516040518563ffffffff1660e01b8152600401610e269493929190612284565b6020604051808303816000875af1158015610e45573d6000803e3d6000fd5b505050506040513d601f19601f82011682018060405250810190610e699190611f00565b828281518110610e7b57610e7b611a5b565b602002602001019060070b908160070b815250508080610e9a90611b37565b915050610d9e565b509392505050565b606082518451148015610ebe575081518451145b610eda5760405162461bcd60e51b815260040161058690611e79565b83516001600160401b03811115610ef357610ef361117a565b604051908082528060200260200182016040528015610f1c578160200160208202803683370190505b50905060005b8451811015610ea2576108006001600160a01b03166354b826f533878481518110610f4f57610f4f611a5b565b6020026020010151878581518110610f6957610f69611a5b565b6020026020010151878681518110610f8357610f83611a5b565b60200260200101516040518563ffffffff1660e01b8152600401610faa94939291906122bb565b6020604051808303816000875af1158015610fc9573d6000803e3d6000fd5b505050506040513d601f19601f82011682018060405250810190610fed9190611f00565b828281518110610fff57610fff611a5b565b602002602001019060070b908160070b81525050808061101e90611b37565b915050610f22565b606081518351146110495760405162461bcd60e51b815260040161058690611e79565b82516001600160401b038111156110625761106261117a565b60405190808252806020026020018201604052801561108b578160200160208202803683370190505b50905060005b83518110156106c0576108006001600160a01b03166353266bbb338684815181106110be576110be611a5b565b60200260200101518685815181106110d8576110d8611a5b565b60200260200101516040518463ffffffff1660e01b81526004016110fe93929190611ecc565b6020604051808303816000875af115801561111d573d6000803e3d6000fd5b505050506040513d601f19601f820116820180604052508101906111419190611f00565b82828151811061115357611153611a5b565b602002602001019060070b908160070b81525050808061117290611b37565b915050611091565b634e487b7160e01b600052604160045260246000fd5b604051606081016001600160401b03811182821017156111b2576111b261117a565b60405290565b604080519081016001600160401b03811182821017156111b2576111b261117a565b604051608081016001600160401b03811182821017156111b2576111b261117a565b604051601f8201601f191681016001600160401b03811182821017156112245761122461117a565b604052919050565b60006001600160401b038211156112455761124561117a565b50601f01601f191660200190565b600082601f83011261126457600080fd5b81356112776112728261122c565b6111fc565b81815284602083860101111561128c57600080fd5b816020850160208301376000918101602001919091529392505050565b6000602082840312156112bb57600080fd5b81356001600160401b038111156112d157600080fd5b6112dd84828501611253565b949350505050565b60005b838110156113005781810151838201526020016112e8565b50506000910152565b600081518084526113218160208601602086016112e5565b601f01601f19169290920160200192915050565b600081516040845261134a6040850182611309565b602093840151949093019390935250919050565b8281526040602082015260006112dd6040830184611335565b60006001600160401b038211156113905761139061117a565b5060051b60200190565b600082601f8301126113ab57600080fd5b813560206113bb61127283611377565b82815260059290921b840181019181810190868411156113da57600080fd5b8286015b848110156114195780356001600160401b038111156113fd5760008081fd5b61140b8986838b0101611253565b8452509183019183016113de565b509695505050505050565b60006020828403121561143657600080fd5b81356001600160401b0381111561144c57600080fd5b6112dd8482850161139a565b6000602080830181845280855180835260408601915060059250604081841b8701018488016000805b848110156114ee57898403603f19018652825180518086529089019089860190808a1b87018b01855b828110156114d857601f198983030184526114c6828651611335565b948d0194938d019391506001016114aa565b50988b0198965050509288019250600101611481565b50919998505050505050505050565b600081518084526020808501808196508360051b8101915082860160005b8581101561156857828403895281516060815181875261153d82880182611309565b83890151888a015260409384015160ff1693909701929092525050978401979084019060010161151b565b5091979650505050505050565b60208152600061158860208301846114fd565b9392505050565b6000604080830181845280865180835260608601915060608160051b8701019250602080890160005b8381101561160857888603605f19018552815180518888526115dc89890182611309565b91850151888303898701529190506115f481836114fd565b9750505093820193908201906001016115b8565b50508684038188015250505061161e81866114fd565b9695505050505050565b602080825282518282018190526000919060409081850190868401855b828110156115685781518051600790810b865287820151900b8786015285810151868601526060908101519085015260809093019290850190600101611645565b600082601f83011261169757600080fd5b813560206116a761127283611377565b82815260059290921b840181019181810190868411156116c657600080fd5b8286015b8481101561141957803583529183019183016116ca565b600080604083850312156116f457600080fd5b82356001600160401b038082111561170b57600080fd5b6117178683870161139a565b9350602085013591508082111561172d57600080fd5b5061173a85828601611686565b9150509250929050565b6020808252825182820181905260009190848201906040850190845b8181101561177f57835160070b83529284019291840191600101611760565b50909695505050505050565b6000806000604084860312156117a057600080fd5b83356001600160401b03808211156117b757600080fd5b818601915086601f8301126117cb57600080fd5b8135818111156117da57600080fd5b8760208260051b85010111156117ef57600080fd5b6020928301989097509590910135949350505050565b6000602080830181845280855180835260408601915060408160051b870101925083870160005b8281101561185a57603f19888603018452611848858351611309565b9450928501929085019060010161182c565b5092979650505050505050565b60008060006060848603121561187c57600080fd5b83356001600160401b038082111561189357600080fd5b61189f8783880161139a565b945060208601359150808211156118b557600080fd5b6118c187838801611686565b935060408601359150808211156118d757600080fd5b506118e486828701611686565b9150509250925092565b60008060006060848603121561190357600080fd5b83356001600160401b038082111561191a57600080fd5b6119268783880161139a565b9450602086013591508082111561193c57600080fd5b6118c18783880161139a565b6001600160a01b03831681526040602082018190526000906112dd90830184611309565b600082601f83011261197d57600080fd5b815161198b6112728261122c565b8181528460208386010111156119a057600080fd5b6112dd8260208301602087016112e5565b6000604082840312156119c357600080fd5b604051604081016001600160401b0382821081831117156119e6576119e661117a565b8160405282935084519150808211156119fe57600080fd5b50611a0b8582860161196c565b825250602083015160208201525092915050565b60008060408385031215611a3257600080fd5b8251915060208301516001600160401b03811115611a4f57600080fd5b61173a858286016119b1565b634e487b7160e01b600052603260045260246000fd5b60006020808385031215611a8457600080fd5b82516001600160401b0380821115611a9b57600080fd5b818501915085601f830112611aaf57600080fd5b8151611abd61127282611377565b81815260059190911b83018401908481019088831115611adc57600080fd5b8585015b83811015611b1457805185811115611af85760008081fd5b611b068b89838a01016119b1565b845250918601918601611ae0565b5098975050505050505050565b634e487b7160e01b600052601160045260246000fd5b600060018201611b4957611b49611b21565b5060010190565b600082601f830112611b6157600080fd5b81516020611b7161127283611377565b82815260059290921b84018101918181019086841115611b9057600080fd5b8286015b848110156114195780516001600160401b0380821115611bb45760008081fd5b908801906060828b03601f1901811315611bce5760008081fd5b611bd6611190565b8784015183811115611be85760008081fd5b611bf68d8a8388010161196c565b825250604084810151898301529382015193925060ff84168414611c1c57600091508182fd5b91820192909252845250918301918301611b94565b600060208284031215611c4357600080fd5b81516001600160401b03811115611c5957600080fd5b6112dd84828501611b50565b6000806040808486031215611c7957600080fd5b83516001600160401b0380821115611c9057600080fd5b818601915086601f830112611ca457600080fd5b81516020611cb461127283611377565b82815260059290921b8401810191818101908a841115611cd357600080fd5b8286015b84811015611d6357805186811115611cef5760008081fd5b8701808d03601f1901891315611d055760008081fd5b611d0d6111b8565b8582015188811115611d1f5760008081fd5b611d2d8f888386010161196c565b8252508982015188811115611d425760008081fd5b611d508f8883860101611b50565b8288015250845250918301918301611cd7565b5091890151919750909450505080831115611d7d57600080fd5b505061173a85828601611b50565b8051600781900b8114611d9d57600080fd5b919050565b60006020808385031215611db557600080fd5b82516001600160401b03811115611dcb57600080fd5b8301601f81018513611ddc57600080fd5b8051611dea61127282611377565b81815260079190911b82018301908381019087831115611e0957600080fd5b928401925b82841015611e6e5760808489031215611e275760008081fd5b611e2f6111da565b611e3885611d8b565b8152611e45868601611d8b565b818701526040858101519082015260608086015190820152825260809093019290840190611e0e565b979650505050505050565b60208082526033908201527f4164647265737320616e6420616d6f756e7420617272617973206d75737420686040820152720c2ecca40e8d0ca40e6c2daca40d8cadccee8d606b1b606082015260800190565b6001600160a01b0384168152606060208201819052600090611ef090830185611309565b9050826040830152949350505050565b600060208284031215611f1257600080fd5b61158882611d8b565b6001600160a01b03848116825283166020820152606060408201819052600090611f4790830184611309565b95945050505050565b600060208284031215611f6257600080fd5b5051919050565b8082018082111561047c5761047c611b21565b81835281816020850137506000828201602090810191909152601f909101601f19169091010190565b6001600160a01b0385168152602080820185905260606040830181905282018390526000906080600585901b840181019190840186845b8781101561204b57868503607f190183528135368a9003601e1901811261200257600080fd5b890184810190356001600160401b0381111561201d57600080fd5b80360382131561202c57600080fd5b612037878284611f7c565b965050509183019190830190600101611fdc565b50929998505050505050505050565b60006020828403121561206c57600080fd5b8151801515811461158857600080fd5b60208082526021908201527f4661696c656420746f20617070726f7665207374616b696e67206d6574686f646040820152607360f81b606082015260800190565b600081548084526020808501808196506005915083821b81016000878152848120815b878110156114ee578484038b5281548390600181811c908083168061210657607f831692505b8b8310810361212357634e487b7160e01b88526022600452602488fd5b8289526020890181801561213e57600181146121535761217d565b60ff19861682528415158d1b8201965061217d565b6000898152602090208a5b8681101561217757815484820152908501908f0161215e565b83019750505b5050509d8a019d929650505091909101906001016120e0565b60018060a01b0384168152826020820152606060408201526000611f4760608301846120bd565b600060208083850312156121d057600080fd5b82516001600160401b03808211156121e757600080fd5b818501915085601f8301126121fb57600080fd5b815161220961127282611377565b81815260059190911b8301840190848101908883111561222857600080fd5b8585015b83811015611b14578051858111156122445760008081fd5b6122528b89838a010161196c565b84525091860191860161222c565b6001600160a01b03831681526040602082018190526000906112dd908301846120bd565b6001600160a01b03851681526080602082018190526000906122a890830186611309565b6040830194909452506060015292915050565b6001600160a01b03851681526080602082018190526000906122df90830186611309565b82810360408401526122f18186611309565b9150508260608301529594505050505056fe2f636f736d6f732e7374616b696e672e763162657461312e4d736744656c6567617465a2646970667358221220aaa7fc5eac0d2b6d549b191776289599f37c3d0852758cbed4e9ae3e1dbd935264736f6c634300081100332f636f736d6f732e7374616b696e672e763162657461312e4d7367426567696e526564656c65676174652f636f736d6f732e7374616b696e672e763162657461312e4d7367556e64656c65676174652f636f736d6f732e646973747269627574696f6e2e763162657461312e4d7367576974686472617744656c656761746f725265776172642f636f736d6f732e7374616b696e672e763162657461312e4d736744656c65676174652f636f736d6f732e7374616b696e672e763162657461312e4d736743616e63656c556e626f6e64696e6744656c65676174696f6e",
  "linkReferences": {},
  "deployedLinkReferences": {}
}